{
  "transactions": [
    {
      "hash": "0x34c46766a7ad063883cd4b3245737d2bb1989167a288d96c2f145feb8badc0ee",
      "transactionType": "CALL",
      "contractName": null,
      "contractAddress": "0xe988128467299fd856bb45d2241811837bf35e77",
      "function": "submitDeliverable(bytes32,string,bytes32)",
      "arguments": [
        "0x052889c95d7fe2e6e3d0dd2262ec72f78a56c1e52af6a42fd225d81896ab297d",
        "ipfs://QmDemoDeliverable_CodeReviewReport",
        "0x33f150429b5df0f4ffe8c480661045cd6d7f44a5f10d91c7d618a6f21e14a360"
      ],
      "transaction": {
        "from": "0x31084ba014bc91d467d008e6fb21f827ac6f7eb0",
        "to": "0xe988128467299fd856bb45d2241811837bf35e77",
        "gas": "0x7e052",
        "value": "0x0",
        "input": "0x44a08122052889c95d7fe2e6e3d0dd2262ec72f78a56c1e52af6a42fd225d81896ab297d000000000000000000000000000000000000000000000000000000000000006033f150429b5df0f4ffe8c480661045cd6d7f44a5f10d91c7d618a6f21e14a3600000000000000000000000000000000000000000000000000000000000000029697066733a2f2f516d44656d6f44656c6976657261626c655f436f64655265766965775265706f72740000000000000000000000000000000000000000000000",
        "nonce": "0xf",
        "chainId": "0x14a34"
      },
      "additionalContracts": [],
      "isFixedGasLimit": false
    },
    {
      "hash": "0xe1af0e4df4f2d08c116120df1385ebf54cb644b5d1ddd2c54c36c126189c7e04",
      "transactionType": "CALL",
      "contractName": null,
      "contractAddress": "0xe988128467299fd856bb45d2241811837bf35e77",
      "function": "confirmDelivery(bytes32)",
      "arguments": [
        "0x052889c95d7fe2e6e3d0dd2262ec72f78a56c1e52af6a42fd225d81896ab297d"
      ],
      "transaction": {
        "from": "0x31084ba014bc91d467d008e6fb21f827ac6f7eb0",
        "to": "0xe988128467299fd856bb45d2241811837bf35e77",
        "gas": "0x65004",
        "value": "0x0",
        "input": "0x74950ffd052889c95d7fe2e6e3d0dd2262ec72f78a56c1e52af6a42fd225d81896ab297d",
        "nonce": "0x10",
        "chainId": "0x14a34"
      },
      "additionalContracts": [],
      "isFixedGasLimit": false
    }
  ],
  "receipts": [
    {
      "status": "0x1",
      "cumulativeGasUsed": "0xe4a841",
      "logs": [
        {
          "address": "0xb9d5b30a207429e95ea7e055fba6d9d6b7ba632b",
          "topics": [
            "0xb67286083cc43ce96a0e05b5979148dbd9ee9d06bfe831ca34bed2f562cd0b1d",
            "0x00000000000000000000000031084ba014bc91d467d008e6fb21f827ac6f7eb0",
            "0x0000000000000000000000000000000000000000000000000000000000000002",
            "0x0653202bb6cb762e17443ce5921d9d9a6c3fac77f320d41042c7a0595cfdefe2"
          ],
          "data": "0x0000000000000000000000000000000000000000000000000000000000000020000000000000000000000000000000000000000000000000000000000000005361656769733a2f2f76616c69646174696f6e2f3035323838396339356437666532653665336430646432323632656337326637386135366331653532616636613432666432323564383138393661623239376400000000000000000000000000",
          "blockHash": "0x0000000000000000000000000000000000000000000000000000000000000000",
          "blockNumber": "0x23e12ac",
          "blockTimestamp": "0x698f8438",
          "transactionHash": "0x34c46766a7ad063883cd4b3245737d2bb1989167a288d96c2f145feb8badc0ee",
          "transactionIndex": "0xc",
          "logIndex": "0x57",
          "removed": false
        },
        {
          "address": "0xe988128467299fd856bb45d2241811837bf35e77",
          "topics": [
            "0x2315b5dc97e50d751de2da1ca9c2874c62f7a5f4d1a400e4ced92ba2cce02945",
            "0x052889c95d7fe2e6e3d0dd2262ec72f78a56c1e52af6a42fd225d81896ab297d"
          ],
          "data": "0x000000000000000000000000000000000000000000000000000000000000006033f150429b5df0f4ffe8c480661045cd6d7f44a5f10d91c7d618a6f21e14a3600653202bb6cb762e17443ce5921d9d9a6c3fac77f320d41042c7a0595cfdefe20000000000000000000000000000000000000000000000000000000000000029697066733a2f2f516d44656d6f44656c6976657261626c655f436f64655265766965775265706f72740000000000000000000000000000000000000000000000",
          "blockHash": "0x0000000000000000000000000000000000000000000000000000000000000000",
          "blockNumber": "0x23e12ac",
          "blockTimestamp": "0x698f8438",
          "transactionHash": "0x34c46766a7ad063883cd4b3245737d2bb1989167a288d96c2f145feb8badc0ee",
          "transactionIndex": "0xc",
          "logIndex": "0x58",
          "removed": false
        }
      ],
      "logsBloom": "0x04000000000800000000400000000000000000000000000000000000000000000000000000000000000000000000000000000000000000000000000400000004010800000000000100000000000000000000300000000000000000000000000000000000000000000000000000000000000000000000000000000000000000000000000000000000000000000000000000000000000000000000000000000000000000000000000000000100000000000010000000000000000000000000000000000000410000000000020040020000000000000000080000000000800000000000000000000000000000020000000000400000008001000000000000800000",
      "type": "0x2",
      "transactionHash": "0x34c46766a7ad063883cd4b3245737d2bb1989167a288d96c2f145feb8badc0ee",
      "transactionIndex": "0xc",
      "blockHash": "0x0000000000000000000000000000000000000000000000000000000000000000",
      "blockNumber": "0x23e12ac",
      "gasUsed": "0x5b3c8",
      "effectiveGasPrice": "0x2dc6c0",
      "blobGasUsed": "0x590c",
      "from": "0x31084ba014bc91d467d008e6fb21f827ac6f7eb0",
      "to": "0xe988128467299fd856bb45d2241811837bf35e77",
      "contractAddress": null,
      "daFootprintGasScalar": "0x8b",
      "l1BaseFeeScalar": "0x44d",
      "l1BlobBaseFee": "0x150d98ba",
      "l1BlobBaseFeeScalar": "0xa118b",
      "l1Fee": "0xc40b5fc95",
      "l1GasPrice": "0x128f075df",
      "l1GasUsed": "0xa40"
    },
    {
      "status": "0x1",
      "cumulativeGasUsed": "0xe93a39",
      "logs": [
        {
          "address": "0xe988128467299fd856bb45d2241811837bf35e77",
          "topics": [
            "0x503814a76d8d0ecc713cdab2eb0ee72d86b21c202ef091f429cfa67445b17011",
            "0x052889c95d7fe2e6e3d0dd2262ec72f78a56c1e52af6a42fd225d81896ab297d"
          ],
          "data": "0x",
          "blockHash": "0x0000000000000000000000000000000000000000000000000000000000000000",
          "blockNumber": "0x23e12ac",
          "blockTimestamp": "0x698f8438",
          "transactionHash": "0xe1af0e4df4f2d08c116120df1385ebf54cb644b5d1ddd2c54c36c126189c7e04",
          "transactionIndex": "0xd",
          "logIndex": "0x59",
          "removed": false
        },
        {
          "address": "0x036cbd53842c5426634e7929541ec2318f3dcf7e",
          "topics": [
            "0xddf252ad1be2c89b69c2b068fc378daa952ba7f163c4a11628f55a4df523b3ef",
            "0x000000000000000000000000e988128467299fd856bb45d2241811837bf35e77",
            "0x00000000000000000000000031084ba014bc91d467d008e6fb21f827ac6f7eb0"
          ],
          "data": "0x000000000000000000000000000000000000000000000000000000000094c5f0",
          "blockHash": "0x0000000000000000000000000000000000000000000000000000000000000000",
          "blockNumber": "0x23e12ac",
          "blockTimestamp": "0x698f8438",
          "transactionHash": "0xe1af0e4df4f2d08c116120df1385ebf54cb644b5d1ddd2c54c36c126189c7e04",
          "transactionIndex": "0xd",
          "logIndex": "0x5a",
          "removed": false
        },
        {
          "address": "0x036cbd53842c5426634e7929541ec2318f3dcf7e",
          "topics": [
            "0xddf252ad1be2c89b69c2b068fc378daa952ba7f163c4a11628f55a4df523b3ef",
            "0x000000000000000000000000e988128467299fd856bb45d2241811837bf35e77",
            "0x000000000000000000000000e64d271a863aa1438fbb36bd1f280fa1f499c3f5"
          ],
          "data": "0x000000000000000000000000000000000000000000000000000000000003d090",
          "blockHash": "0x0000000000000000000000000000000000000000000000000000000000000000",
          "blockNumber": "0x23e12ac",
          "blockTimestamp": "0x698f8438",
          "transactionHash": "0xe1af0e4df4f2d08c116120df1385ebf54cb644b5d1ddd2c54c36c126189c7e04",
          "transactionIndex": "0xd",
          "logIndex": "0x5b",
          "removed": false
        },
        {
          "address": "0xe988128467299fd856bb45d2241811837bf35e77",
          "topics": [
            "0xf87e8dd7bb90a5925878e157bdef342f700305941ae003d881ab637f8d6c30de",
            "0x052889c95d7fe2e6e3d0dd2262ec72f78a56c1e52af6a42fd225d81896ab297d",
            "0x00000000000000000000000031084ba014bc91d467d008e6fb21f827ac6f7eb0"
          ],
          "data": "0x000000000000000000000000000000000000000000000000000000000094c5f0000000000000000000000000000000000000000000000000000000000003d090",
          "blockHash": "0x0000000000000000000000000000000000000000000000000000000000000000",
          "blockNumber": "0x23e12ac",
          "blockTimestamp": "0x698f8438",
          "transactionHash": "0xe1af0e4df4f2d08c116120df1385ebf54cb644b5d1ddd2c54c36c126189c7e04",
          "transactionIndex": "0xd",
          "logIndex": "0x5c",
          "removed": false
        },
        {
          "address": "0x760b4605371fae6097acd2dcd8ca93dd5fff9c84",
          "topics": [
            "0x7994fa0075521f2736dd3de157b83e708d88929e3c0d562a6bb47e5598d91b35"
          ],
          "data": "0x0000000000000000000000000000000000000000000000000000000000000002000000000000000000000000e988128467299fd856bb45d2241811837bf35e77000000000000000000000000000000000000000000000000000000000000000000000000000000000000000000000000000000000000000000000000000000a000000000000000000000000000000000000000000000000000000000000000e0000000000000000000000000000000000000000000000000000000000000000d6a6f62436f6d706c6574696f6e000000000000000000000000000000000000000000000000000000000000000000000000000000000000000000000000000007736574746c656400000000000000000000000000000000000000000000000000",
          "blockHash": "0x0000000000000000000000000000000000000000000000000000000000000000",
          "blockNumber": "0x23e12ac",
          "blockTimestamp": "0x698f8438",
          "transactionHash": "0xe1af0e4df4f2d08c116120df1385ebf54cb644b5d1ddd2c54c36c126189c7e04",
          "transactionIndex": "0xd",
          "logIndex": "0x5d",
          "removed": false
        }
      ],
      "logsBloom": "0x00000000040000000000400000100000000000080000000000000000000000000008000000000000000000000000000000000000000000000000002000000000000000000000004800000008000800000000000000000000000000020000000800000000000000000000000000000000000000000000000000000010400000000000000000008000000000000008000000000000000000000000000000000000000000000000000000000000000000200000040000000000000000010000010000000002410002000000020040000000000000000000080200000000000000000000000000000000000000020020000000480000000001000000000000000000",
      "type": "0x2",
      "transactionHash": "0xe1af0e4df4f2d08c116120df1385ebf54cb644b5d1ddd2c54c36c126189c7e04",
      "transactionIndex": "0xd",
      "blockHash": "0x0000000000000000000000000000000000000000000000000000000000000000",
      "blockNumber": "0x23e12ac",
      "gasUsed": "0x491f8",
      "effectiveGasPrice": "0x2dc6c0",
      "blobGasUsed": "0x364c",
      "from": "0x31084ba014bc91d467d008e6fb21f827ac6f7eb0",
      "to": "0xe988128467299fd856bb45d2241811837bf35e77",
      "contractAddress": null,
      "daFootprintGasScalar": "0x8b",
      "l1BaseFeeScalar": "0x44d",
      "l1BlobBaseFee": "0x150d98ba",
      "l1BlobBaseFeeScalar": "0xa118b",
      "l1Fee": "0xc40b5fc95",
      "l1GasPrice": "0x128f075df",
      "l1GasUsed": "0x640"
    }
  ],
  "libraries": [],
  "pending": [],
  "returns": {},
  "timestamp": 1771013175760,
  "chain": 84532,
  "commit": null
}