{
  "transactions": [
    {
      "hash": "0x8dc8dd4c915f7ef8f27b7d81dd63b198637ba4a491a2f3c4c332da0c2da09c5b",
      "transactionType": "CALL",
      "contractName": null,
      "contractAddress": "0xc67ed2b93a4b05c35872fbb15c199ee30ce4300d",
      "function": "register(string)",
      "arguments": [
        "agent://aegis-demo/client-agent"
      ],
      "transaction": {
        "from": "0x31084ba014bc91d467d008e6fb21f827ac6f7eb0",
        "to": "0xc67ed2b93a4b05c35872fbb15c199ee30ce4300d",
        "gas": "0x21ac2",
        "value": "0x0",
        "input": "0xf2c298be0000000000000000000000000000000000000000000000000000000000000020000000000000000000000000000000000000000000000000000000000000001f6167656e743a2f2f61656769732d64656d6f2f636c69656e742d6167656e7400",
        "nonce": "0xb",
        "chainId": "0x14a34"
      },
      "additionalContracts": [],
      "isFixedGasLimit": false
    },
    {
      "hash": "0xf9b803b5717aa37297852706c6fff3792f7d7dd6fbb40e84f927d26ea915d13a",
      "transactionType": "CALL",
      "contractName": null,
      "contractAddress": "0xc67ed2b93a4b05c35872fbb15c199ee30ce4300d",
      "function": "register(string)",
      "arguments": [
        "agent://aegis-demo/provider-agent"
      ],
      "transaction": {
        "from": "0x31084ba014bc91d467d008e6fb21f827ac6f7eb0",
        "to": "0xc67ed2b93a4b05c35872fbb15c199ee30ce4300d",
        "gas": "0x2ed37",
        "value": "0x0",
        "input": "0xf2c298be000000000000000000000000000000000000000000000000000000000000002000000000000000000000000000000000000000000000000000000000000000216167656e743a2f2f61656769732d64656d6f2f70726f76696465722d6167656e7400000000000000000000000000000000000000000000000000000000000000",
        "nonce": "0xc",
        "chainId": "0x14a34"
      },
      "additionalContracts": [],
      "isFixedGasLimit": false
    },
    {
      "hash": "0x26528a8fe545c969e4e21a0cccd8e3a7765aabdc592781c3c142a7366e418288",
      "transactionType": "CALL",
      "contractName": null,
      "contractAddress": "0x036cbd53842c5426634e7929541ec2318f3dcf7e",
      "function": "approve(address,uint256)",
      "arguments": [
        "0xe988128467299fD856Bb45D2241811837BF35E77",
        "10000000"
      ],
      "transaction": {
        "from": "0x31084ba014bc91d467d008e6fb21f827ac6f7eb0",
        "to": "0x036cbd53842c5426634e7929541ec2318f3dcf7e",
        "gas": "0x12b1b",
        "value": "0x0",
        "input": "0x095ea7b3000000000000000000000000e988128467299fd856bb45d2241811837bf35e770000000000000000000000000000000000000000000000000000000000989680",
        "nonce": "0xd",
        "chainId": "0x14a34"
      },
      "additionalContracts": [],
      "isFixedGasLimit": false
    },
    {
      "hash": "0x50ae550e7ea251e029e5be1b3a2e470070063873e7edb9759c420277124852db",
      "transactionType": "CALL",
      "contractName": null,
      "contractAddress": "0xe988128467299fd856bb45d2241811837bf35e77",
      "function": "createJob(uint256,uint256,bytes32,string,address,uint256,uint256,uint8)",
      "arguments": [
        "1",
        "2",
        "0x004ea958a4bdb996ce84867abe8928cab0e568ec8b7907b3d29c060da2f1b7fb",
        "ipfs://QmDemoJobSpec_CodeReview",
        "0x31084ba014bC91D467D008e6fb21f827AC6f7eb0",
        "1771617904",
        "10000000",
        "70"
      ],
      "transaction": {
        "from": "0x31084ba014bc91d467d008e6fb21f827ac6f7eb0",
        "to": "0xe988128467299fd856bb45d2241811837bf35e77",
        "gas": "0xa7cd4",
        "value": "0x0",
        "input": "0x2e65379b00000000000000000000000000000000000000000000000000000000000000010000000000000000000000000000000000000000000000000000000000000002004ea958a4bdb996ce84867abe8928cab0e568ec8b7907b3d29c060da2f1b7fb000000000000000000000000000000000000000000000000000000000000010000000000000000000000000031084ba014bc91d467d008e6fb21f827ac6f7eb0000000000000000000000000000000000000000000000000000000006998be7000000000000000000000000000000000000000000000000000000000009896800000000000000000000000000000000000000000000000000000000000000046000000000000000000000000000000000000000000000000000000000000001f697066733a2f2f516d44656d6f4a6f62537065635f436f646552657669657700",
        "nonce": "0xe",
        "chainId": "0x14a34"
      },
      "additionalContracts": [],
      "isFixedGasLimit": false
    }
  ],
  "receipts": [
    {
      "status": "0x1",
      "cumulativeGasUsed": "0x20a5ca",
      "logs": [],
      "logsBloom": "0x00000000000000000000000000000000000000000000000000000000000000000000000000000000000000000000000000000000000000000000000000000000000000000000000000000000000000000000000000000000000000000000000000000000000000000000000000000000000000000000000000000000000000000000000000000000000000000000000000000000000000000000000000000000000000000000000000000000000000000000000000000000000000000000000000000000000000000000000000000000000000000000000000000000000000000000000000000000000000000000000000000000000000000000000000000000",
      "type": "0x2",
      "transactionHash": "0x50ae550e7ea251e029e5be1b3a2e470070063873e7edb9759c420277124852db",
      "transactionIndex": "0xd",
      "blockHash": "0x8ae1122a41dec5d49b402900a2d855f254d3d8c07a7c17f564c73a9a12d4010d",
      "blockNumber": "0x23e128d",
      "gasUsed": "0x17062",
      "effectiveGasPrice": "0x2dc6c0",
      "blobGasUsed": "0x364c",
      "from": "0x31084ba014bc91d467d008e6fb21f827ac6f7eb0",
      "to": "0xc67ed2b93a4b05c35872fbb15c199ee30ce4300d",
      "contractAddress": null,
      "daFootprintGasScalar": "0x8b",
      "l1BaseFeeScalar": "0x44d",
      "l1BlobBaseFee": "0x139bfc0d",
      "l1BlobBaseFeeScalar": "0xa118b",
      "l1Fee": "0x766949fac",
      "l1GasPrice": "0x154f913f2",
      "l1GasUsed": "0x640"
    },
    {
      "status": "0x1",
      "cumulativeGasUsed": "0x22c436",
      "logs": [],
      "logsBloom": "0x00000000000000000000000000000000000000000000000000000000000000000000000000000000000000000000000000000000000000000000000000000000000000000000000000000000000000000000000000000000000000000000000000000000000000000000000000000000000000000000000000000000000000000000000000000000000000000000000000000000000000000000000000000000000000000000000000000000000000000000000000000000000000000000000000000000000000000000000000000000000000000000000000000000000000000000000000000000000000000000000000000000000000000000000000000000",
      "type": "0x2",
      "transactionHash": "0xf9b803b5717aa37297852706c6fff3792f7d7dd6fbb40e84f927d26ea915d13a",
      "transactionIndex": "0xe",
      "blockHash": "0x0000000000000000000000000000000000000000000000000000000000000000",
      "blockNumber": "0x23e128d",
      "gasUsed": "0x21e6c",
      "effectiveGasPrice": "0x2dc6c0",
      "blobGasUsed": "0x364c",
      "from": "0x31084ba014bc91d467d008e6fb21f827ac6f7eb0",
      "to": "0xc67ed2b93a4b05c35872fbb15c199ee30ce4300d",
      "contractAddress": null,
      "daFootprintGasScalar": "0x8b",
      "l1BaseFeeScalar": "0x44d",
      "l1BlobBaseFee": "0x139bfc0d",
      "l1BlobBaseFeeScalar": "0xa118b",
      "l1Fee": "0x278091721b",
      "l1GasPrice": "0x154f913f2",
      "l1GasUsed": "0x640"
    },
    {
      "status": "0x1",
      "cumulativeGasUsed": "0x239cc3",
      "logs": [
        {
          "address": "0x036cbd53842c5426634e7929541ec2318f3dcf7e",
          "topics": [
            "0x8c5be1e5ebec7d5bd14f71427d1e84f3dd0314c0f7b2291e5b200ac8c7c3b925",
            "0x00000000000000000000000031084ba014bc91d467d008e6fb21f827ac6f7eb0",
            "0x000000000000000000000000e988128467299fd856bb45d2241811837bf35e77"
          ],
          "data": "0x0000000000000000000000000000000000000000000000000000000000989680",
          "blockHash": "0x0000000000000000000000000000000000000000000000000000000000000000",
          "blockNumber": "0x23e128d",
          "blockTimestamp": "0x698f83fa",
          "transactionHash": "0x26528a8fe545c969e4e21a0cccd8e3a7765aabdc592781c3c142a7366e418288",
          "transactionIndex": "0xf",
          "logIndex": "0x38",
          "removed": false
        }
      ],
      "logsBloom": "0x00000000040000000000000000000000000000000000000000000000000000000008000000000000000000000000000000000000000000000000000000200000000000000000000000000000000000000000000000000000000000000000000800000000000000000000000000000000000000000000000000000000000000000000000000000000000000000000000000000000000000000000000000000000020000000000000000000000000000000000040000000000000000000000000000000000000000000000000040000000000000000000000000000000000000000010000000000000000000020020000000080000000001000000000000000000",
      "type": "0x2",
      "transactionHash": "0x26528a8fe545c969e4e21a0cccd8e3a7765aabdc592781c3c142a7366e418288",
      "transactionIndex": "0xf",
      "blockHash": "0x0000000000000000000000000000000000000000000000000000000000000000",
      "blockNumber": "0x23e128d",
      "gasUsed": "0xd88d",
      "effectiveGasPrice": "0x2dc6c0",
      "blobGasUsed": "0x364c",
      "from": "0x31084ba014bc91d467d008e6fb21f827ac6f7eb0",
      "to": "0x036cbd53842c5426634e7929541ec2318f3dcf7e",
      "contractAddress": null,
      "daFootprintGasScalar": "0x8b",
      "l1BaseFeeScalar": "0x44d",
      "l1BlobBaseFee": "0x139bfc0d",
      "l1BlobBaseFeeScalar": "0xa118b",
      "l1Fee": "0x278091721b",
      "l1GasPrice": "0x154f913f2",
      "l1GasUsed": "0x640"
    },
    {
      "status": "0x1",
      "cumulativeGasUsed": "0x2b3488",
      "logs": [
        {
          "address": "0x036cbd53842c5426634e7929541ec2318f3dcf7e",
          "topics": [
            "0xddf252ad1be2c89b69c2b068fc378daa952ba7f163c4a11628f55a4df523b3ef",
            "0x00000000000000000000000031084ba014bc91d467d008e6fb21f827ac6f7eb0",
            "0x000000000000000000000000e988128467299fd856bb45d2241811837bf35e77"
          ],
          "data": "0x0000000000000000000000000000000000000000000000000000000000989680",
          "blockHash": "0x0000000000000000000000000000000000000000000000000000000000000000",
          "blockNumber": "0x23e128d",
          "blockTimestamp": "0x698f83fa",
          "transactionHash": "0x8dc8dd4c915f7ef8f27b7d81dd63b198637ba4a491a2f3c4c332da0c2da09c5b",
          "transactionIndex": "0x10",
          "logIndex": "0x39",
          "removed": false
        },
        {
          "address": "0xe988128467299fd856bb45d2241811837bf35e77",
          "topics": [
            "0xf9b83817b957f2c353d864e9aaa0a315aff145256acd24b968584037e5d05a6c",
            "0x052889c95d7fe2e6e3d0dd2262ec72f78a56c1e52af6a42fd225d81896ab297d",
            "0x0000000000000000000000000000000000000000000000000000000000000001",
            "0x0000000000000000000000000000000000000000000000000000000000000002"
          ],
          "data": "0x000000000000000000000000000000000000000000000000000000000098968000000000000000000000000031084ba014bc91d467d008e6fb21f827ac6f7eb0000000000000000000000000000000000000000000000000000000006998be70",
          "blockHash": "0x0000000000000000000000000000000000000000000000000000000000000000",
          "blockNumber": "0x23e128d",
          "blockTimestamp": "0x698f83fa",
          "transactionHash": "0x8dc8dd4c915f7ef8f27b7d81dd63b198637ba4a491a2f3c4c332da0c2da09c5b",
          "transactionIndex": "0x10",
          "logIndex": "0x3a",
          "removed": false
        },
        {
          "address": "0xe988128467299fd856bb45d2241811837bf35e77",
          "topics": [
            "0x8220b978cac568b980751c54df59af3be6c1d3bd9874232210cc1cf89740142b",
            "0x052889c95d7fe2e6e3d0dd2262ec72f78a56c1e52af6a42fd225d81896ab297d"
          ],
          "data": "0x0000000000000000000000000000000000000000000000000000000000989680",
          "blockHash": "0x0000000000000000000000000000000000000000000000000000000000000000",
          "blockNumber": "0x23e128d",
          "blockTimestamp": "0x698f83fa",
          "transactionHash": "0x8dc8dd4c915f7ef8f27b7d81dd63b198637ba4a491a2f3c4c332da0c2da09c5b",
          "transactionIndex": "0x10",
          "logIndex": "0x3b",
          "removed": false
        }
      ],
      "logsBloom": "0x04000000040000100000400000000000000000000000000000000000000000000008000000000000000000000004000000000000000000000000000000040000000000000000000002000008000000000000000000040000000000000000000800000000000000000000000000000000000000000000000000000010000000000000000000000000000000000000000000000000000000000000000000000000000000000000000000000100000000000000040000000400000000000000000000000002410000000000020040000000000000000000080000000000000040080000000000000000000000020020000000480000009001000000000000000000",
      "type": "0x2",
      "transactionHash": "0x8dc8dd4c915f7ef8f27b7d81dd63b198637ba4a491a2f3c4c332da0c2da09c5b",
      "transactionIndex": "0x10",
      "blockHash": "0x0000000000000000000000000000000000000000000000000000000000000000",
      "blockNumber": "0x23e128d",
      "gasUsed": "0x797c5",
      "effectiveGasPrice": "0x2dc6c0",
      "blobGasUsed": "0x5f05",
      "from": "0x31084ba014bc91d467d008e6fb21f827ac6f7eb0",
      "to": "0xe988128467299fd856bb45d2241811837bf35e77",
      "contractAddress": null,
      "daFootprintGasScalar": "0x8b",
      "l1BaseFeeScalar": "0x44d",
      "l1BlobBaseFee": "0x139bfc0d",
      "l1BlobBaseFeeScalar": "0xa118b",
      "l1Fee": "0x278091721b",
      "l1GasPrice": "0x154f913f2",
      "l1GasUsed": "0xafb"
    }
  ],
  "libraries": [],
  "pending": [],
  "returns": {},
  "timestamp": 1771013114781,
  "chain": 84532,
  "commit": null
}